:100000000C942A000C9447000C9447000C94470071
:100010000C9447000C9447000C9447000C94470044
:100020000C9447000C9447000C9447000C94470034
:100030000C9447000C9447000C9447000C94470024
:100040000C9447000C9447000C9447000C94470014
:100050000C94470011241FBECFE5D8E0DEBFCDBF12
:1000600011E0A0E6B0E0EAE6F8E002C005900D92EB
:10007000A031B107D9F711E0A0E1B1E001C01D92B4
:10008000A031B107E1F70E942F020C9433040C94C5
:10009000000088BB85B38C7F85BBAB9A82E08A95D4
:1000A000F1F700C0AB988FE697E10197F1F700C038
:1000B0000000089588BBA99885B3896085BB82E05C
:1000C0008A95F1F700C0AB988FEC97E00197F1F7B4
:1000D00000C00000089584B38B6084BB8FEF87BBA2
:1000E0008FE39CE90197F1F700C0000088E30E94CC
:1000F00049008CE00E94490086E00E94490081E0AE
:100100000E94490080E80E9449000895CF93DF9340
:10011000EC018881882331F021960E945A00899150
:100120008823D9F7DF91CF910895CF93DF93EA0128
:10013000813031F4862F8F7080680E94490007C09B
:10014000823029F4862F8F70806C0E944900CE0186
:100150000E948600DF91CF91089581E00E944900BE
:1001600080E80E94490008958AB38ABB87B387BBA1
:1001700084B384BB81B381BB8BB38BBB88B388BB97
:1001800085B385BB82B382BB0895843070F4E82FB9
:10019000F0E0EE0FFF1FE05AFF4F0190F081E02DDD
:1001A0008081FB01808381E0089580E008958430A0
:1001B00060F4E82FF0E0EE0FFF1FE05AFF4F0190D0
:1001C000F081E02D608381E0089580E0089584301F
:1001D00070F4E82FF0E0EE0FFF1FE859FF4F019099
:1001E000F081E02D8081FB01808381E0089580E033
:1001F0000895843050F4E82FF0E0EE0FFF1FE0592F
:10020000FF4F0190F081E02D60830895803228F542
:10021000E82FE695E695E695F0E0EE0FFF1FE05A31
:10022000FF4F0190F081E02D208190E08770907069
:1002300030E041E050E0082E02C0440F551F0A9400
:10024000E2F724233523A90102C0559547958A95E5
:10025000E2F7FB01408381E0089580E00895803259
:1002600038F5E82FE695E695E695F0E0EE0FFF1FEE
:10027000E05AFF4F0190F081E02D708190E087708F
:10028000907041E050E09A01082E02C0220F331F07
:100290000A94E2F72095272370E0AB0102C0440FD7
:1002A000551F8A95E2F7CA01822B808381E0089569
:1002B00080E00895803228F5E82FE695E695E695EA
:1002C000F0E0EE0FFF1FE859FF4F0190F081E02DA5
:1002D000208190E08770907030E041E050E0082E7F
:1002E00002C0440F551F0A94E2F724233523A901C5
:1002F00002C0559547958A95E2F7FB01408381E05E
:10030000089580E00895803238F5E82FE695E69567
:10031000E695F0E0EE0FFF1FE059FF4F0190F081EE
:10032000E02D708190E08770907041E050E09A017C
:10033000082E02C0220F331F0A94E2F720952723CC
:1003400070E0AB0102C0440F551F8A95E2F7CA0165
:10035000822B808381E0089580E00895379A089584
:1003600037980895CF93DF93EDE7F0E024E030E095
:1003700061E070E0A7B1419150E0022E02C0440F4D
:10038000551F0A94E2F7EB01022E02C0CC0FDD1FCD
:100390000A94E2F7CE0180958A23482B47B9215071
:1003A0003040DFEF2F3F3D0729F73D98ECEAF0E0C2
:1003B00022E030E061E070E0A6B1419150E0022E11
:1003C00002C0440F551F0A94E2F7EB01022E02C04F
:1003D000CC0FDD1F0A94E2F7CE0180958A23482BCB
:1003E00046B921503040DFEF2F3F3D0729F73398C2
:1003F0003598DF91CF910895369A349BFECF24B182
:1004000035B1FC0131832083349A0895EF92FF9235
:100410001F93CF93DF9300D0CDB7DEB77C0118E0F8
:10042000CE0101960E94FC01F70120813181898172
:100430009A81820F931F91838083115089F796953B
:1004400087959695879596958795918380830F904C
:100450000F90DF91CF911F91FF90EF900895CF9370
:10046000DF9300D0CDB7DEB71A8219820E94B400A4
:1004700080E060E00E94D7000E94B2010E94AE01BD
:10048000CE0101960E94FC0181E069810E94F90081
:100490006A8183E00E94F900F3CF379A0895379874
:1004A0000895CF93DF93EDEBF0E024E030E061E0DE
:1004B00070E0A7B1419150E0022E02C0440F551FD9
:1004C0000A94E2F7EB01022E02C0CC0FDD1F0A9462
:1004D000E2F7CE0180958A23482B47B9215030405E
:1004E000DFEF2F3F3D0729F73D98ECEEF0E022E0EB
:1004F00030E061E070E0A6B1419150E0022E02C010
:10050000440F551F0A94E2F7EB01022E02C0CC0FF4
:10051000DD1F0A94E2F7CE0180958A23482B46B965
:1005200021503040DFEF2F3F3D0729F733983598B2
:10053000DF91CF910895369A349BFECF24B135B127
:10054000FC0131832083349A0895EF92FF921F9328
:10055000CF93DF9300D0CDB7DEB77C0118E0CE019A
:1005600001960E949B02F7012081318189819A8145
:10057000820F931F91838083115089F796958795F9
:100580009695879596958795918380830F900F9088
:10059000DF91CF911F91FF90EF9008958AB38ABBAE
:1005A00087B387BB84B384BB81B381BB8BB38BBB65
:1005B00088B388BB85B385BB82B382BB0895843082
:1005C00070F4E82FF0E0EE0FFF1FE850FF4F0190AE
:1005D000F081E02D8081FB01808381E0089580E03F
:1005E0000895843060F4E82FF0E0EE0FFF1FE8502C
:1005F000FF4F0190F081E02D608381E0089580E05D
:100600000895843070F4E82FF0E0EE0FFF1FE05003
:10061000FF4F0190F081E02D8081FB01808381E01C
:10062000089580E00895843050F4E82FF0E0EE0F54
:10063000FF1FE85FFE4F0190F081E02D6083089579
:10064000803228F5E82FE695E695E695F0E0EE0F86
:10065000FF1FE850FF4F0190F081E02D208190E0D6
:100660008770907030E041E050E0082E02C0440FE7
:10067000551F0A94E2F724233523A90102C055959A
:1006800047958A95E2F7FB01408381E0089580E079
:100690000895803238F5E82FE695E695E695F0E086
:1006A000EE0FFF1FE850FF4F0190F081E02D7081A9
:1006B00090E08770907041E050E09A01082E02C0EF
:1006C000220F331F0A94E2F72095272370E0AB0135
:1006D00002C0440F551F8A95E2F7CA01822B80831E
:1006E00081E0089580E00895803228F5E82FE695AE
:1006F000E695E695F0E0EE0FFF1FE050FF4F01900A
:10070000F081E02D208190E08770907030E041E032
:1007100050E0082E02C0440F551F0A94E2F724232C
:100720003523A90102C0559547958A95E2F7FB014B
:10073000408381E0089580E00895803238F5E82F05
:10074000E695E695E695F0E0EE0FFF1FE85FFE4FB9
:100750000190F081E02D708190E08770907041E011
:1007600050E09A01082E02C0220F331F0A94E2F7CC
:100770002095272370E0AB0102C0440F551F8A95D6
:10078000E2F7CA01822B808381E0089580E008951A
:1007900088BB85B38C7F85BBAB9A82E08A95F1F7E5
:1007A00000C0AB988FE697E10197F1F700C0000019
:1007B000089588BBA99885B3896085BB82E08A9536
:1007C000F1F700C0AB988FEC97E00197F1F700C00C
:1007D0000000089584B38B6084BB8FEF87BB8FE3E9
:1007E0009CE90197F1F700C0000088E30E94C8036C
:1007F0008CE00E94C80386E00E94C80381E00E944A
:10080000C80380E80E94C8030895CF93DF93EC01EA
:100810008881882331F021960E94D9038991882309
:10082000D9F7DF91CF910895CF93DF93EA0181301B
:1008300031F4862F8F7080680E94C80307C0823011
:1008400029F4862F8F70806C0E94C803CE010E940D
:100850000504DF91CF91089581E00E94C80380E8EC
:0A0860000E94C8030895F894FFCF2A
:10086A003A003700340031003900360033003000D6
:10087A003B00380035003200000000000000000094
:10088A000001000000010000000001010000010059
:10089A000000000100010000010100000001010147
:1008AA000000000000010001000001010100000138
:1008BA000001010100010101000000000000000028
:1008CA000001000000010000000001010000010019
:1008DA000000000100010000010100000001010107
:1008EA0000000000000100010000010101000001F8
:1008FA0000010101000101013A0037003400310012
:10090A0039003600330030003B0038003500320031
:00000001FF
