S00B00004144432E7372656351
S11300000C942A000C9447000C9447000C9447006D
S11300100C9447000C9447000C9447000C94470040
S11300200C9447000C9447000C9447000C94470030
S11300300C9447000C9447000C9447000C94470020
S11300400C9447000C9447000C9447000C94470010
S11300500C94470011241FBECFE5D8E0DEBFCDBF0E
S113006010E0A0E6B0E0E8E4F1E002C005900D92F3
S1130070A03AB107D9F710E0A0EAB0E001C01D92A0
S1130080A03AB107E1F70E9449000C94A2000C9435
S11300900000FFCF379A089537980895CF93DF93E0
S11300A0E0E6F0E024E030E061E070E0A7B14191E7
S11300B050E0022E02C0440F551F0A94E2F7EB01F0
S11300C0022E02C0CC0FDD1F0A94E2F7CE01809508
S11300D08A23482B47B921503040DFEF2F3F3D079B
S11300E029F73D9AE4E9F0E022E030E061E070E0D5
S11300F0A6B1419150E0022E02C0440F551F0A944C
S1130100E2F7EB01022E02C0CC0FDD1F0A94E2F7E6
S1130110CE0180958A23482B46B921503040DFEF29
S11301202F3F3D0729F733983598DF91CF910895F4
S1130130369A349BFECF24B135B1FC013183208340
S10B0140349A0895F894FFCFEE
S113014800000000000000000001000000010000A1
S1130158000001010000010000000001000100008E
S1130168010100000001010100000000000100017C
S11301780000010101000001000101010001010169
S9030000FC
