:100000000C942A000C9447000C9447000C94470071
:100010000C9447000C9447000C9447000C94470044
:100020000C9447000C9447000C9447000C94470034
:100030000C9447000C9447000C9447000C94470024
:100040000C9447000C9447000C9447000C94470014
:100050000C94470011241FBECFE5D8E0DEBFCDBF12
:1000600010E0A0E6B0E0E6EEF4E002C005900D92EC
:10007000A039B107D9F710E0A0E9B0E001C01D92A6
:10008000A039B107E1F70E9443010C9471020C946E
:1000900000008AB38ABB87B387BB84B384BB81B3B8
:1000A00081BB8BB38BBB88B388BB85B385BB82B365
:1000B00082BB0895843070F4E82FF0E0EE0FFF1F4C
:1000C000E05AFF4F0190F081E02D8081FB01808399
:1000D00081E0089580E00895843060F4E82FF0E036
:1000E000EE0FFF1FE05AFF4F0190F081E02D60837B
:1000F00081E0089580E00895843070F4E82FF0E006
:10010000EE0FFF1FE859FF4F0190F081E02D808135
:10011000FB01808381E0089580E00895843050F4ED
:10012000E82FF0E0EE0FFF1FE059FF4F0190F08144
:10013000E02D60830895803228F5E82FE695E69556
:10014000E695F0E0EE0FFF1FE05AFF4F0190F081BF
:10015000E02D208190E08770907030E041E050E029
:10016000082E02C0440F551F0A94E2F724233523BA
:10017000A90102C0559547958A95E2F7FB01408396
:1001800081E0089580E00895803238F5E82FE69503
:10019000E695E695F0E0EE0FFF1FE05AFF4F019065
:1001A000F081E02D708190E08770907041E050E028
:1001B0009A01082E02C0220F331F0A94E2F72095FD
:1001C000272370E0AB0102C0440F551F8A95E2F768
:1001D000CA01822B808381E0089580E008958032F7
:1001E00028F5E82FE695E695E695F0E0EE0FFF1F7F
:1001F000E859FF4F0190F081E02D208190E0877059
:10020000907030E041E050E0082E02C0440F551FCE
:100210000A94E2F724233523A90102C05595479596
:100220008A95E2F7FB01408381E0089580E008951C
:10023000803238F5E82FE695E695E695F0E0EE0F8A
:10024000FF1FE059FF4F0190F081E02D708190E099
:100250008770907041E050E09A01082E02C0220F92
:10026000331F0A94E2F72095272370E0AB0102C008
:10027000440F551F8A95E2F7CA01822B808381E0E3
:10028000089580E00895CF93DF930F92CDB7DEB746
:100290000E94490080E161E00E94C40081E061E0C9
:1002A0000E946C0088E160E00E94C40088E161E087
:1002B0000E94180188E1BE016F5F7F4F0E94EF002E
:1002C0008981882351F081E06AEA0E948E0081E0F2
:1002D00061E00E941801A89AEDCF81E065E50E94D7
:1002E0008E00A89881E060E00E941801E3CF8AB3F5
:1002F0008ABB87B387BB84B384BB81B381BB8BB319
:100300008BBB88B388BB85B385BB82B382BB0895A2
:10031000843070F4E82FF0E0EE0FFF1FE858FF4F35
:100320000190F081E02D8081FB01808381E00895C0
:1003300080E00895843060F4E82FF0E0EE0FFF1FB6
:10034000E858FF4F0190F081E02D608381E008952F
:1003500080E00895843070F4E82FF0E0EE0FFF1F86
:10036000E058FF4F0190F081E02D8081FB018083F8
:1003700081E0089580E00895843050F4E82FF0E0A3
:10038000EE0FFF1FE857FF4F0190F081E02D6083D3
:100390000895803228F5E82FE695E695E695F0E099
:1003A000EE0FFF1FE858FF4F0190F081E02D2081F4
:1003B00090E08770907030E041E050E0082E02C07D
:1003C000440F551F0A94E2F724233523A90102C0E4
:1003D000559547958A95E2F7FB01408381E00895A2
:1003E00080E00895803238F5E82FE695E695E695A9
:1003F000F0E0EE0FFF1FE858FF4F0190F081E02D75
:10040000708190E08770907041E050E09A01082E72
:1004100002C0220F331F0A94E2F72095272370E0D1
:10042000AB0102C0440F551F8A95E2F7CA01822B27
:10043000808381E0089580E00895803228F5E82FD8
:10044000E695E695E695F0E0EE0FFF1FE058FF4FCA
:100450000190F081E02D208190E08770907030E075
:1004600041E050E0082E02C0440F551F0A94E2F705
:1004700024233523A90102C0559547958A95E2F7B3
:10048000FB01408381E0089580E00895803238F5D3
:10049000E82FE695E695E695F0E0EE0FFF1FE857AA
:1004A000FF4F0190F081E02D708190E08770907097
:1004B00041E050E09A01082E02C0220F331F0A9437
:1004C000E2F72095272370E0AB0102C0440F551FCF
:1004D0008A95E2F7CA01822B808381E0089580E04B
:0604E0000895F894FFCF1F
:1004E6003A0037003400310039003600330030005E
:1004F6003B003800350032003A0037003400310046
:1005060039003600330030003B0038003500320039
:00000001FF
